{
  "_format": "hh-sol-artifact-1",
  "contractName": "TravelEscrow",
  "sourceName": "contracts/Escrow.sol",
  "abi": [
    {
      "inputs": [],
      "stateMutability": "nonpayable",
      "type": "constructor"
    },
    {
      "inputs": [
        {
          "internalType": "address",
          "name": "owner",
          "type": "address"
        }
      ],
      "name": "OwnableInvalidOwner",
      "type": "error"
    },
    {
      "inputs": [
        {
          "internalType": "address",
          "name": "account",
          "type": "address"
        }
      ],
      "name": "OwnableUnauthorizedAccount",
      "type": "error"
    },
    {
      "anonymous": false,
      "inputs": [
        {
          "indexed": true,
          "internalType": "bytes32",
          "name": "dealId",
          "type": "bytes32"
        }
      ],
      "name": "DealCancelled",
      "type": "event"
    },
    {
      "anonymous": false,
      "inputs": [
        {
          "indexed": true,
          "internalType": "bytes32",
          "name": "dealId",
          "type": "bytes32"
        }
      ],
      "name": "DealCompleted",
      "type": "event"
    },
    {
      "anonymous": false,
      "inputs": [
        {
          "indexed": true,
          "internalType": "bytes32",
          "name": "dealId",
          "type": "bytes32"
        },
        {
          "indexed": true,
          "internalType": "address",
          "name": "buyer",
          "type": "address"
        },
        {
          "indexed": true,
          "internalType": "address",
          "name": "traveler",
          "type": "address"
        },
        {
          "indexed": false,
          "internalType": "uint256",
          "name": "amount",
          "type": "uint256"
        }
      ],
      "name": "DealCreated",
      "type": "event"
    },
    {
      "anonymous": false,
      "inputs": [
        {
          "indexed": true,
          "internalType": "bytes32",
          "name": "dealId",
          "type": "bytes32"
        },
        {
          "indexed": false,
          "internalType": "address",
          "name": "recipient",
          "type": "address"
        },
        {
          "indexed": false,
          "internalType": "uint256",
          "name": "amount",
          "type": "uint256"
        }
      ],
      "name": "FundsReleased",
      "type": "event"
    },
    {
      "anonymous": false,
      "inputs": [
        {
          "indexed": true,
          "internalType": "bytes32",
          "name": "dealId",
          "type": "bytes32"
        }
      ],
      "name": "ItemDelivered",
      "type": "event"
    },
    {
      "anonymous": false,
      "inputs": [
        {
          "indexed": true,
          "internalType": "address",
          "name": "previousOwner",
          "type": "address"
        },
        {
          "indexed": true,
          "internalType": "address",
          "name": "newOwner",
          "type": "address"
        }
      ],
      "name": "OwnershipTransferred",
      "type": "event"
    },
    {
      "inputs": [
        {
          "internalType": "bytes32",
          "name": "_dealId",
          "type": "bytes32"
        }
      ],
      "name": "cancelDeal",
      "outputs": [],
      "stateMutability": "nonpayable",
      "type": "function"
    },
    {
      "inputs": [
        {
          "internalType": "bytes32",
          "name": "_dealId",
          "type": "bytes32"
        }
      ],
      "name": "confirmDelivery",
      "outputs": [],
      "stateMutability": "nonpayable",
      "type": "function"
    },
    {
      "inputs": [
        {
          "internalType": "address payable",
          "name": "_traveler",
          "type": "address"
        }
      ],
      "name": "createDeal",
      "outputs": [],
      "stateMutability": "payable",
      "type": "function"
    },
    {
      "inputs": [
        {
          "internalType": "bytes32",
          "name": "",
          "type": "bytes32"
        }
      ],
      "name": "deals",
      "outputs": [
        {
          "internalType": "address payable",
          "name": "buyer",
          "type": "address"
        },
        {
          "internalType": "address payable",
          "name": "traveler",
          "type": "address"
        },
        {
          "internalType": "uint256",
          "name": "amount",
          "type": "uint256"
        },
        {
          "internalType": "bool",
          "name": "itemDelivered",
          "type": "bool"
        },
        {
          "internalType": "bool",
          "name": "buyerConfirmed",
          "type": "bool"
        },
        {
          "internalType": "uint256",
          "name": "expirationTime",
          "type": "uint256"
        }
      ],
      "stateMutability": "view",
      "type": "function"
    },
    {
      "inputs": [
        {
          "internalType": "bytes32",
          "name": "_dealId",
          "type": "bytes32"
        }
      ],
      "name": "markItemDelivered",
      "outputs": [],
      "stateMutability": "nonpayable",
      "type": "function"
    },
    {
      "inputs": [],
      "name": "owner",
      "outputs": [
        {
          "internalType": "address",
          "name": "",
          "type": "address"
        }
      ],
      "stateMutability": "view",
      "type": "function"
    },
    {
      "inputs": [
        {
          "internalType": "bytes32",
          "name": "_dealId",
          "type": "bytes32"
        }
      ],
      "name": "releaseFundsAfterExpiration",
      "outputs": [],
      "stateMutability": "nonpayable",
      "type": "function"
    },
    {
      "inputs": [],
      "name": "renounceOwnership",
      "outputs": [],
      "stateMutability": "nonpayable",
      "type": "function"
    },
    {
      "inputs": [
        {
          "internalType": "bytes32",
          "name": "_dealId",
          "type": "bytes32"
        },
        {
          "internalType": "bool",
          "name": "releaseToTraveler",
          "type": "bool"
        }
      ],
      "name": "resolveDispute",
      "outputs": [],
      "stateMutability": "nonpayable",
      "type": "function"
    },
    {
      "inputs": [
        {
          "internalType": "address",
          "name": "newOwner",
          "type": "address"
        }
      ],
      "name": "transferOwnership",
      "outputs": [],
      "stateMutability": "nonpayable",
      "type": "function"
    }
  ],
  "bytecode": "0x60806040523480156200001157600080fd5b5033600073ffffffffffffffffffffffffffffffffffffffff168173ffffffffffffffffffffffffffffffffffffffff1603620000885760006040517f1e4fbdf70000000000000000000000000000000000000000000000000000000081526004016200007f9190620001a9565b60405180910390fd5b6200009981620000a060201b60201c565b50620001c6565b60008060009054906101000a900473ffffffffffffffffffffffffffffffffffffffff169050816000806101000a81548173ffffffffffffffffffffffffffffffffffffffff021916908373ffffffffffffffffffffffffffffffffffffffff1602179055508173ffffffffffffffffffffffffffffffffffffffff168173ffffffffffffffffffffffffffffffffffffffff167f8be0079c531659141344cd1fd0a4f28419497f9722a3daafe3b4186f6b6457e060405160405180910390a35050565b600073ffffffffffffffffffffffffffffffffffffffff82169050919050565b6000620001918262000164565b9050919050565b620001a38162000184565b82525050565b6000602082019050620001c0600083018462000198565b92915050565b611ad980620001d66000396000f3fe6080604052600436106100915760003560e01c80638da5cb5b116100595780638da5cb5b1461015d578063ac2a017614610188578063b9273c71146101b1578063f2fde38b146101da578063faa86b4a1461020357610091565b8063405009321461009657806343a0e3e6146100b2578063715018a6146100db57806374950ffd146100f257806381cd872a1461011b575b600080fd5b6100b060048036038101906100ab9190611106565b61022c565b005b3480156100be57600080fd5b506100d960048036038101906100d491906111a1565b61046d565b005b3480156100e757600080fd5b506100f0610691565b005b3480156100fe57600080fd5b50610119600480360381019061011491906111e1565b6106a5565b005b34801561012757600080fd5b50610142600480360381019061013d91906111e1565b610910565b60405161015496959493929190611245565b60405180910390f35b34801561016957600080fd5b506101726109a6565b60405161017f91906112c7565b60405180910390f35b34801561019457600080fd5b506101af60048036038101906101aa91906111e1565b6109cf565b005b3480156101bd57600080fd5b506101d860048036038101906101d391906111e1565b610be6565b005b3480156101e657600080fd5b5061020160048036038101906101fc919061130e565b610d2f565b005b34801561020f57600080fd5b5061022a600480360381019061022591906111e1565b610db5565b005b6000341161026f576040517f08c379a000000000000000000000000000000000000000000000000000000000815260040161026690611398565b60405180910390fd5b60003382426040516020016102869392919061144a565b6040516020818303038152906040528051906020012090506040518060c001604052803373ffffffffffffffffffffffffffffffffffffffff1681526020018373ffffffffffffffffffffffffffffffffffffffff1681526020013481526020016000151581526020016000151581526020016203f4804261030891906114b6565b8152506001600083815260200190815260200160002060008201518160000160006101000a81548173ffffffffffffffffffffffffffffffffffffffff021916908373ffffffffffffffffffffffffffffffffffffffff16021790555060208201518160010160006101000a81548173ffffffffffffffffffffffffffffffffffffffff021916908373ffffffffffffffffffffffffffffffffffffffff1602179055506040820151816002015560608201518160030160006101000a81548160ff02191690831515021790555060808201518160030160016101000a81548160ff02191690831515021790555060a082015181600401559050508173ffffffffffffffffffffffffffffffffffffffff163373ffffffffffffffffffffffffffffffffffffffff16827fcad4311a7b7df47804262b146992dc3538395f0428e06c16a8b976792df050f93460405161046191906114ea565b60405180910390a45050565b610475610f50565b60006001600084815260200190815260200160002090508060030160019054906101000a900460ff16156104de576040517f08c379a00000000000000000000000000000000000000000000000000000000081526004016104d590611551565b60405180910390fd5b81156105ba578060010160009054906101000a900473ffffffffffffffffffffffffffffffffffffffff1673ffffffffffffffffffffffffffffffffffffffff166108fc82600201549081150290604051600060405180830381858888f19350505050158015610552573d6000803e3d6000fd5b50827f75d86e5bfa1175e2dc677f3abe3aebba3069f2db6ae492f1734d4b4bc65f61c18260010160009054906101000a900473ffffffffffffffffffffffffffffffffffffffff1683600201546040516105ad9291906115d0565b60405180910390a261068c565b8060000160009054906101000a900473ffffffffffffffffffffffffffffffffffffffff1673ffffffffffffffffffffffffffffffffffffffff166108fc82600201549081150290604051600060405180830381858888f19350505050158015610628573d6000803e3d6000fd5b50827f75d86e5bfa1175e2dc677f3abe3aebba3069f2db6ae492f1734d4b4bc65f61c18260000160009054906101000a900473ffffffffffffffffffffffffffffffffffffffff1683600201546040516106839291906115d0565b60405180910390a25b505050565b610699610f50565b6106a36000610fd7565b565b60006001600083815260200190815260200160002090508060000160009054906101000a900473ffffffffffffffffffffffffffffffffffffffff1673ffffffffffffffffffffffffffffffffffffffff163373ffffffffffffffffffffffffffffffffffffffff161461074e576040517f08c379a00000000000000000000000000000000000000000000000000000000081526004016107459061166b565b60405180910390fd5b8060030160009054906101000a900460ff1661079f576040517f08c379a0000000000000000000000000000000000000000000000000000000008152600401610796906116d7565b60405180910390fd5b8060030160019054906101000a900460ff16156107f1576040517f08c379a00000000000000000000000000000000000000000000000000000000081526004016107e890611743565b60405180910390fd5b60018160030160016101000a81548160ff0219169083151502179055508060010160009054906101000a900473ffffffffffffffffffffffffffffffffffffffff1673ffffffffffffffffffffffffffffffffffffffff166108fc82600201549081150290604051600060405180830381858888f1935050505015801561087c573d6000803e3d6000fd5b50817fb37ceee315dcda7248282a61b4d22b17bcb7bbde5ec0e75e1e1200b7ce2e41c960405160405180910390a2817f75d86e5bfa1175e2dc677f3abe3aebba3069f2db6ae492f1734d4b4bc65f61c18260010160009054906101000a900473ffffffffffffffffffffffffffffffffffffffff1683600201546040516109049291906115d0565b60405180910390a25050565b60016020528060005260406000206000915090508060000160009054906101000a900473ffffffffffffffffffffffffffffffffffffffff16908060010160009054906101000a900473ffffffffffffffffffffffffffffffffffffffff16908060020154908060030160009054906101000a900460ff16908060030160019054906101000a900460ff16908060040154905086565b60008060009054906101000a900473ffffffffffffffffffffffffffffffffffffffff16905090565b60006001600083815260200190815260200160002090508060010160009054906101000a900473ffffffffffffffffffffffffffffffffffffffff1673ffffffffffffffffffffffffffffffffffffffff163373ffffffffffffffffffffffffffffffffffffffff1614610a78576040517f08c379a0000000000000000000000000000000000000000000000000000000008152600401610a6f906117d5565b60405180910390fd5b8060040154421015610abf576040517f08c379a0000000000000000000000000000000000000000000000000000000008152600401610ab690611841565b60405180910390fd5b8060030160019054906101000a900460ff1615610b11576040517f08c379a0000000000000000000000000000000000000000000000000000000008152600401610b08906118ad565b60405180910390fd5b8060010160009054906101000a900473ffffffffffffffffffffffffffffffffffffffff1673ffffffffffffffffffffffffffffffffffffffff166108fc82600201549081150290604051600060405180830381858888f19350505050158015610b7f573d6000803e3d6000fd5b50817f75d86e5bfa1175e2dc677f3abe3aebba3069f2db6ae492f1734d4b4bc65f61c18260010160009054906101000a900473ffffffffffffffffffffffffffffffffffffffff168360020154604051610bda9291906115d0565b60405180910390a25050565b60006001600083815260200190815260200160002090508060010160009054906101000a900473ffffffffffffffffffffffffffffffffffffffff1673ffffffffffffffffffffffffffffffffffffffff163373ffffffffffffffffffffffffffffffffffffffff1614610c8f576040517f08c379a0000000000000000000000000000000000000000000000000000000008152600401610c869061193f565b60405180910390fd5b8060030160009054906101000a900460ff1615610ce1576040517f08c379a0000000000000000000000000000000000000000000000000000000008152600401610cd8906119ab565b60405180910390fd5b60018160030160006101000a81548160ff021916908315150217905550817f9c0852c0fef2a6d3a7439b4654596bc4bea7b4b49d40d96f14cec87f312e586560405160405180910390a25050565b610d37610f50565b600073ffffffffffffffffffffffffffffffffffffffff168173ffffffffffffffffffffffffffffffffffffffff1603610da95760006040517f1e4fbdf7000000000000000000000000000000000000000000000000000000008152600401610da091906112c7565b60405180910390fd5b610db281610fd7565b50565b60006001600083815260200190815260200160002090508060000160009054906101000a900473ffffffffffffffffffffffffffffffffffffffff1673ffffffffffffffffffffffffffffffffffffffff163373ffffffffffffffffffffffffffffffffffffffff1614610e5e576040517f08c379a0000000000000000000000000000000000000000000000000000000008152600401610e5590611a17565b60405180910390fd5b8060030160009054906101000a900460ff1615610eb0576040517f08c379a0000000000000000000000000000000000000000000000000000000008152600401610ea790611a83565b60405180910390fd5b8060000160009054906101000a900473ffffffffffffffffffffffffffffffffffffffff1673ffffffffffffffffffffffffffffffffffffffff166108fc82600201549081150290604051600060405180830381858888f19350505050158015610f1e573d6000803e3d6000fd5b50817f5988fa122da008f51dcb7e8062ab7e95218b45ba1195da9900d79f8e364dede960405160405180910390a25050565b610f5861109b565b73ffffffffffffffffffffffffffffffffffffffff16610f766109a6565b73ffffffffffffffffffffffffffffffffffffffff1614610fd557610f9961109b565b6040517f118cdaa7000000000000000000000000000000000000000000000000000000008152600401610fcc91906112c7565b60405180910390fd5b565b60008060009054906101000a900473ffffffffffffffffffffffffffffffffffffffff169050816000806101000a81548173ffffffffffffffffffffffffffffffffffffffff021916908373ffffffffffffffffffffffffffffffffffffffff1602179055508173ffffffffffffffffffffffffffffffffffffffff168173ffffffffffffffffffffffffffffffffffffffff167f8be0079c531659141344cd1fd0a4f28419497f9722a3daafe3b4186f6b6457e060405160405180910390a35050565b600033905090565b600080fd5b600073ffffffffffffffffffffffffffffffffffffffff82169050919050565b60006110d3826110a8565b9050919050565b6110e3816110c8565b81146110ee57600080fd5b50565b600081359050611100816110da565b92915050565b60006020828403121561111c5761111b6110a3565b5b600061112a848285016110f1565b91505092915050565b6000819050919050565b61114681611133565b811461115157600080fd5b50565b6000813590506111638161113d565b92915050565b60008115159050919050565b61117e81611169565b811461118957600080fd5b50565b60008135905061119b81611175565b92915050565b600080604083850312156111b8576111b76110a3565b5b60006111c685828601611154565b92505060206111d78582860161118c565b9150509250929050565b6000602082840312156111f7576111f66110a3565b5b600061120584828501611154565b91505092915050565b611217816110c8565b82525050565b6000819050919050565b6112308161121d565b82525050565b61123f81611169565b82525050565b600060c08201905061125a600083018961120e565b611267602083018861120e565b6112746040830187611227565b6112816060830186611236565b61128e6080830185611236565b61129b60a0830184611227565b979650505050505050565b60006112b1826110a8565b9050919050565b6112c1816112a6565b82525050565b60006020820190506112dc60008301846112b8565b92915050565b6112eb816112a6565b81146112f657600080fd5b50565b600081359050611308816112e2565b92915050565b600060208284031215611324576113236110a3565b5b6000611332848285016112f9565b91505092915050565b600082825260208201905092915050565b7f4d757374206465706f7369742066756e64730000000000000000000000000000600082015250565b600061138260128361133b565b915061138d8261134c565b602082019050919050565b600060208201905081810360008301526113b181611375565b9050919050565b60008160601b9050919050565b60006113d0826113b8565b9050919050565b60006113e2826113c5565b9050919050565b6113fa6113f5826112a6565b6113d7565b82525050565b600061140b826113c5565b9050919050565b61142361141e826110c8565b611400565b82525050565b6000819050919050565b61144461143f8261121d565b611429565b82525050565b600061145682866113e9565b6014820191506114668285611412565b6014820191506114768284611433565b602082019150819050949350505050565b7f4e487b7100000000000000000000000000000000000000000000000000000000600052601160045260246000fd5b60006114c18261121d565b91506114cc8361121d565b92508282019050808211156114e4576114e3611487565b5b92915050565b60006020820190506114ff6000830184611227565b92915050565b7f4465616c20616c726561647920636f6d706c6574656400000000000000000000600082015250565b600061153b60168361133b565b915061154682611505565b602082019050919050565b6000602082019050818103600083015261156a8161152e565b9050919050565b6000819050919050565b600061159661159161158c846110a8565b611571565b6110a8565b9050919050565b60006115a88261157b565b9050919050565b60006115ba8261159d565b9050919050565b6115ca816115af565b82525050565b60006040820190506115e560008301856115c1565b6115f26020830184611227565b9392505050565b7f4f6e6c79207468652062757965722063616e20636f6e6669726d2064656c697660008201527f6572790000000000000000000000000000000000000000000000000000000000602082015250565b600061165560238361133b565b9150611660826115f9565b604082019050919050565b6000602082019050818103600083015261168481611648565b9050919050565b7f4974656d206e6f74206d61726b65642061732064656c69766572656420796574600082015250565b60006116c160208361133b565b91506116cc8261168b565b602082019050919050565b600060208201905081810360008301526116f0816116b4565b9050919050565b7f416c726561647920636f6e6669726d6564000000000000000000000000000000600082015250565b600061172d60118361133b565b9150611738826116f7565b602082019050919050565b6000602082019050818103600083015261175c81611720565b9050919050565b7f4f6e6c792074726176656c65722063616e20636c61696d20657870697265642060008201527f66756e6473000000000000000000000000000000000000000000000000000000602082015250565b60006117bf60258361133b565b91506117ca82611763565b604082019050919050565b600060208201905081810360008301526117ee816117b2565b9050919050565b7f4465616c206973207374696c6c20616374697665000000000000000000000000600082015250565b600061182b60148361133b565b9150611836826117f5565b602082019050919050565b6000602082019050818103600083015261185a8161181e565b9050919050565b7f427579657220616c726561647920636f6e6669726d6564000000000000000000600082015250565b600061189760178361133b565b91506118a282611861565b602082019050919050565b600060208201905081810360008301526118c68161188a565b9050919050565b7f4f6e6c79207468652074726176656c65722063616e206d61726b2064656c697660008201527f6572790000000000000000000000000000000000000000000000000000000000602082015250565b600061192960238361133b565b9150611934826118cd565b604082019050919050565b600060208201905081810360008301526119588161191c565b9050919050565b7f416c7265616479206d61726b65642061732064656c6976657265640000000000600082015250565b6000611995601b8361133b565b91506119a08261195f565b602082019050919050565b600060208201905081810360008301526119c481611988565b9050919050565b7f4f6e6c792062757965722063616e2063616e63656c0000000000000000000000600082015250565b6000611a0160158361133b565b9150611a0c826119cb565b602082019050919050565b60006020820190508181036000830152611a30816119f4565b9050919050565b7f43616e6e6f742063616e63656c2061667465722064656c697665727900000000600082015250565b6000611a6d601c8361133b565b9150611a7882611a37565b602082019050919050565b60006020820190508181036000830152611a9c81611a60565b905091905056fea2646970667358221220e401d69efc251e754aaf3ad0bbac40967f472d9a92db5bbac2b59d3036abfdbb64736f6c63430008140033",
  "linkReferences": {},
  "deployedLinkReferences": {}
}